:020000040800F2
:10000000080400209D010008A5010008A7010008C0
:10001000A9010008AB010008AD01000800000000C4
:10002000000000000000000000000000AF01000818
:10003000B101000800000000B3010008ED02000853
:10004000B7010008B7010008B7010008B7010008B0
:10005000B7010008B7010008B7010008B7010008A0
:10006000B7010008B7010008B7010008B701000890
:10007000B7010008B7010008B7010008B701000880
:10008000B7010008B7010008B7010008B701000870
:10009000B7010008B7010008B7010008B701000860
:1000A000B7010008B7010008B7010008B701000850
:1000B0006103000885030008B7010008B7010008C4
:1000C000B7010008B7010008B7010008B701000830
:1000D000B7010008B7010008B7010008B701000820
:1000E000B7010008B7010008B7010008B701000810
:1000F000B7010008B7010008B7010008B701000800
:10010000B7010008B7010008B7010008B7010008EF
:10011000B7010008B7010008B7010008B7010008DF
:10012000B7010008B7010008B7010008B7010008CF
:10013000B7010008B7010008B7010008B7010008BF
:10014000B7010008B7010008B7010008B7010008AF
:10015000B7010008B7010008B7010008B70100089F
:10016000B7010008B7010008B7010008B70100088F
:10017000B7010008B7010008B7010008000000003F
:10018000B7010008B7010008DFF80CD000F018F83C
:1001900000480047F503000808040020064880478F
:1001A00006480047FEE7FEE7FEE7FEE7FEE7FEE75C
:1001B000FEE7FEE7FEE7FEE7FD0200088901000812
:1001C000064C074D06E0E06840F0010394E80700A4
:1001D00098471034AC42F6D3FFF7DAFF6C040008FE
:1001E0008C04000801B50649086800BF0449096885
:1001F000091A009A9142F9D30021014A116008BD01
:1002000000000020F0B50A4600210023002400BFB2
:100210003DE0012505FA01F3156805EA03049C4257
:1002200034D105684F000326BE40B54305601579FB
:100230004E00B5400668354305601579012D02D0A2
:100240001579022D16D185684F000326BE40B543AF
:10025000856055794E00B5408668354385604568B0
:1002600001268E40B5434560456896798E40B6B20A
:1002700035434560C5684F000326BE40B543C560A1
:10028000D5794E00B540C6683543C560491C102974
:10029000BFD3F0BD42694A40426170471CB501219D
:1002A000082000F013F84FF47040009001208DF802
:1002B000040000208DF806008DF80700694602480A
:1002C000FFF7A0FF1CBD0000000C024029B1064A48
:1002D00012680243044B1A6004E0034A1268824326
:1002E000014B1A6070470000303802400248006835
:1002F000401C014908607047000000201448006855
:1003000040F47000124908601248006840F0010093
:100310001049086000200F49083108600D48006846
:100320000D4908400B4908600C48091D0860081F6A
:10033000006820F48020091F0860002005490C3166
:1003400008604FF000600249803908607047000083
:1003500088ED00E000380240FFFFF6FE1030002478
:1003600010B50121880700F024F840B14FF4405146
:100370000348FFF78FFF0121880700F017F810BD31
:10038000000C024010B50121064800F012F840B1FF
:100390004FF440410448FFF77DFF0121014800F080
:1003A00005F810BD00040040000C0240CA43028260
:1003B000704730B50246002000230024158A05EA64
:1003C0000103958905EA010413B10CB1012000E095
:1003D000002030BD02E008C8121F08C1002AFAD16F
:1003E00070477047002001E001C1121F002AFBD1B5
:1003F00070470000FFF752FF184800684FF47A7208
:10040000B0FBF2F1481EB0F1807F00D31BE0481E24
:100410004FF0E022506150170F22002807DA13072F
:100420001D0E0F4B00F00F04241F1D5503E0130792
:100430001C0E0C4B1C5400BF00204FF0E0229061BA
:100440000720106100BF08E04FF47A70FFF7CAFE82
:100450004FF470410448FFF71DFFF5E7040000204A
:1004600018ED00E000E400E0000C02408C040008FD
:100470000000002008000000D403000894040008D5
:100480000800002000040000E40300080000000051
:040490000024F40050
:040000050800019D51
:00000001FF
