:020000040800F2
:10000000000400209D010008A5010008A7010008C8
:10001000A9010008AB010008AD01000800000000C4
:10002000000000000000000000000000AF01000818
:10003000B101000800000000B3010008B50100088C
:10004000B7010008B7010008B7010008B7010008B0
:10005000B7010008B7010008B7010008B7010008A0
:10006000B7010008B7010008B7010008B701000890
:10007000B7010008B7010008B7010008B701000880
:10008000B7010008B7010008B7010008B701000870
:10009000B7010008B7010008B7010008B701000860
:1000A000B7010008B7010008B7010008B701000850
:1000B000B7010008B7010008B7010008B701000840
:1000C000B7010008B7010008B7010008B701000830
:1000D000B7010008B7010008B7010008B701000820
:1000E000B7010008B7010008B7010008B701000810
:1000F000B7010008B7010008B7010008B701000800
:10010000B7010008B7010008B7010008B7010008EF
:10011000B7010008B7010008B7010008B7010008DF
:10012000B7010008B7010008B7010008B7010008CF
:10013000B7010008B7010008B7010008B7010008BF
:10014000B7010008B7010008B7010008B7010008AF
:10015000B7010008B7010008B7010008B70100089F
:10016000B7010008B7010008B7010008B70100088F
:10017000B7010008B7010008B7010008000000003F
:10018000B7010008B7010008DFF80CD000F018F83C
:10019000004800478D0300080004002006488047FF
:1001A00006480047FEE7FEE7FEE7FEE7FEE7FEE75C
:1001B000FEE7FEE7FEE7FEE7090300088901000805
:1001C000064C074D06E0E06840F0010394E80700A4
:1001D00098471034AC42F6D3FFF7DAFFC4030008A7
:1001E000D4030008F0B50A4600210023002400BF14
:1001F0003DE0012505FA01F3156805EA03049C4278
:1002000034D105684F000326BE40B543056015791B
:100210004E00B5400668354305601579012D02D0C2
:100220001579022D16D185684F000326BE40B543CF
:10023000856055794E00B5408668354385604568D0
:1002400001268E40B5434560456896798E40B6B22A
:1002500035434560C5684F000326BE40B543C560C1
:10026000D5794E00B540C6683543C560491C102994
:10027000BFD3F0BD0246002013690B400BB1012033
:1002800000E0002070474183704701837047000001
:100290001CB50121082000F013F84FF470400090C5
:1002A00001208DF8040000208DF806008DF807006D
:1002B00069460248FFF796FF1CBD0000000C024093
:1002C00029B1064A12680243044B1A6004E0034A4B
:1002D00012688243014B1A607047000030380240B8
:1002E0001CB501210846FFF7EBFF0120009000201C
:1002F0008DF804008DF8070069460248FFF772FF89
:100300001CBD0000000C02401448006840F470005E
:10031000124908601248006840F001001049086066
:1003200000200F49083108600D4800680D49084059
:100330000B4908600C48091D0860081F006820F47C
:100340008020091F0860002005490C3108604FF02B
:1003500000600249803908607047000088ED00E0C5
:1003600000380240FFFFF6FE1030002402E008C80B
:10037000121F08C1002AFAD170477047002001E01F
:1003800001C1121F002AFBD170470000FFF780FF58
:10039000FFF7A6FF10E001210848FFF76BFF0128D7
:1003A00005D14FF470410648FFF76FFF04E04FF4AA
:1003B00070410348FFF767FFEDE7000000000240CF
:1003C000000C0240D40300080000002000040000DC
:0403D0007C030008A2
:040000050800019D51
:00000001FF
