:020000040800F2
:10000000100400209D010008A5010008A7010008B8
:10001000A9010008AB010008AD01000800000000C4
:10002000000000000000000000000000AF01000818
:10003000B101000800000000B3010008B50100088C
:10004000B7010008B7010008B7010008B7010008B0
:10005000B7010008B7010008B7010008B7010008A0
:10006000B7010008B7010008B7010008B701000890
:10007000B7010008B7010008B7010008B701000880
:10008000B7010008B7010008B7010008B701000870
:10009000B7010008B7010008B7010008B701000860
:1000A000B7010008B7010008B7010008B701000850
:1000B000B7010008B7010008B7010008B701000840
:1000C000B7010008B7010008B7010008B701000830
:1000D000B7010008B7010008B7010008B701000820
:1000E000B7010008B7010008B7010008B701000810
:1000F000B7010008B7010008B7010008B701000800
:10010000B7010008B7010008B7010008B7010008EF
:10011000B7010008B7010008B7010008B7010008DF
:10012000B7010008B7010008B7010008B7010008CF
:10013000B7010008B7010008B7010008B7010008BF
:10014000B7010008B7010008B7010008B7010008AF
:10015000B7010008B7010008B7010008B70100089F
:10016000B7010008B7010008B7010008B70100088F
:10017000B7010008B7010008B7010008000000003F
:10018000B7010008B7010008DFF80CD000F018F83C
:1001900000480047D70600081004002006488047A2
:1001A00006480047FEE7FEE7FEE7FEE7FEE7FEE75C
:1001B000FEE7FEE7FEE7FEE771040008890100089C
:1001C000064C074D06E0E06840F0010394E80700A4
:1001D00098471034AC42F6D3FFF7DAFFE006000888
:1001E00000070008F0B50A4600210023002400BFE4
:1001F0003DE0012505FA01F3156805EA03049C4278
:1002000034D105684F000326BE40B543056015791B
:100210004E00B5400668354305601579012D02D0C2
:100220001579022D16D185684F000326BE40B543CF
:10023000856055794E00B5408668354385604568D0
:1002400001268E40B5434560456896798E40B6B22A
:1002500035434560C5684F000326BE40B543C560C1
:10026000D5794E00B540C6683543C560491C102994
:10027000BFD3F0BDF0B5002300244D07ED0E02FA08
:1002800005F3CE1000F1200555F826504E07F70E65
:100290000F26BE40B543CF1000F1200646F8275088
:1002A000CE1000F1200555F8265045EA0304CE1083
:1002B00000F1200545F82640F0BD000070B5002192
:1002C00000230F22C4781CB3174C246804F4E064A4
:1002D000C4F5E064C4F30721C1F10404E3B20A41A8
:1002E00044789C40E1B28478144021430C07210EED
:1002F0000E4C05786155047804F01F050124AC40CC
:1003000005786D11AD0005F1E025C5F8004109E063
:10031000047804F01F050124AC40054D06787611E1
:1003200045F8264070BD00000CED00E000E400E060
:1003300080E100E002490143024A11607047000079
:100340000000FA050CED00E029B1064A12680243EC
:10035000044B1A6004E0034A12688243014B1A609E
:10036000704700003038024029B1064A1268024343
:10037000044B1A6004E0034A12688243014B1A607E
:100380007047000040380240F0B5002100220024F0
:10039000022500260223324F3F6807F00C0121B1ED
:1003A000042905D0082937D105E02E4F076036E033
:1003B0002D4F076033E02A4F3F1F3F68C7F3805639
:1003C000274F3F1F3F6807F03F036EB1264FB7FB33
:1003D000F3F7DFF88CC0ACF1040CDCF800C0CCF310
:1003E000881C07FB0CF40CE01E4FB7FBF3F7DFF89B
:1003F00070C0ACF1040CDCF800C0CCF3881C07FB27
:100400000CF4174F3F1F3F68C7F301477F1C7D0067
:10041000B4FBF5F7076002E0124F076000BF00BFB2
:100420000F4F3F6807F0F0010909104F7A5C076829
:10043000D74047600A4F3F6807F4E051890A0B4FE5
:100440007A5C4768D7408760054F3F6807F4604192
:10045000490B064F7A5C4768D740C760F0BD000083
:10046000083802400024F40040787D01000000209C
:100470001448006840F4700012490860124800688F
:1004800040F001001049086000200F490831086061
:100490000D4800680D4908400B4908600C48091DCB
:1004A0000860081F006820F48020091F08600020F1
:1004B00005490C3108604FF000600249803908603E
:1004C0007047000088ED00E000380240FFFFF6FEB4
:1004D0001030002400B587B001210820FFF734FF59
:1004E0006020059002208DF8180000208DF81A0079
:1004F00001208DF81B0005A91F48FFF773FE072296
:1005000005211D48FFF7B6FE072206211A48FFF70E
:10051000B1FE01214804FFF727FF4FF41650019068
:100520000020ADF80800ADF80A00ADF80C000C2072
:10053000ADF80E0001A9114800F054F8012240F274
:1005400025510E4800F028F801210C4800F018F859
:100550004FF4C060FFF7EEFE26208DF8000000206B
:100560008DF8010001208DF802008DF80300684627
:10057000FFF7A4FE07B000BD000C0240004400409D
:1005800021B1828942F40052828104E082894DF6D1
:10059000FF731A4082817047F0B50346002400269D
:1005A0000025002040F66A17B94200D100BF184666
:1005B000C1F3421401F01F06012707FA06F5012CCA
:1005C00001D10C3004E0022C01D1103000E01430D5
:1005D0001AB107682F43076002E00768AF4307605E
:1005E000F0BD00002DE9FF4705460E460024A14658
:1005F00000BFA046B08900B100BF2C8A24F440544B
:10060000F08804432C82AC8941F20C608443B088AA
:1006100031890843718908430443AC81AC8A24F4CE
:100620004074B0890443AC826846FFF7ADFE2048B1
:10063000854202D01F48854202D1DDF80C9001E0CE
:10064000DDF80890A88900F4004040B109EBC9002A
:1006500000EB091031684900B0FBF1F707E009EB46
:10066000C90000EB091031688900B0FBF1F7642084
:10067000B7FBF0F004012009642101FB1078A88980
:1006800000F4004040B1322000EBC800B0FBF1F0B4
:1006900000F00700044308E0322000EB081064215A
:1006A000B0FBF1F000F00F0004432C81BDE8FF87A0
:1006B000001001400014014002E008C8121F08C1E8
:1006C000002AFAD170477047002001E001C1121FD3
:1006D000002AFBD17047FFF7FDFE00BFFEE70000D8
:1006E000000700080000002010000000B806000805
:1006F000100700081000002000040000C8060008D1
:1007000000000000010203040102030406070809B7
:040000050800019D51
:00000001FF
