:020000040800F2
:10000000000400209D010008A5010008A7010008C8
:10001000A9010008AB010008AD01000800000000C4
:10002000000000000000000000000000AF01000818
:10003000B101000800000000B3010008B50100088C
:10004000B7010008B7010008B7010008B7010008B0
:10005000B7010008B7010008B7010008B7010008A0
:10006000B7010008B7010008B7010008B701000890
:10007000B7010008B7010008B7010008B701000880
:10008000B7010008B7010008B7010008B701000870
:10009000B7010008B7010008B7010008B701000860
:1000A000B7010008B7010008B7010008B701000850
:1000B00039040008B7010008B7010008B7010008BB
:1000C000B7010008B7010008B7010008B701000830
:1000D000B7010008B7010008B7010008B701000820
:1000E000B7010008B7010008B7010008B701000810
:1000F000B7010008B7010008B7010008B701000800
:10010000B7010008B7010008B7010008B7010008EF
:10011000B7010008B7010008B7010008B7010008DF
:10012000B7010008B7010008B7010008B7010008CF
:10013000B7010008B7010008B7010008B7010008BF
:10014000B7010008B7010008B7010008B7010008AF
:10015000B7010008B7010008B7010008B70100089F
:10016000B7010008B7010008B7010008B70100088F
:10017000B7010008B7010008B7010008000000003F
:10018000B7010008B7010008DFF80CD000F018F83C
:100190000048004753050008000400200648804737
:1001A00006480047FEE7FEE7FEE7FEE7FEE7FEE75C
:1001B000FEE7FEE7FEE7FEE7790300088901000895
:1001C000064C074D06E0E06840F0010394E80700A4
:1001D00098471034AC42F6D3FFF7DAFF6005000809
:1001E00070050008F0B50A4600210023002400BF76
:1001F0003DE0012505FA01F3156805EA03049C4278
:1002000034D105684F000326BE40B543056015791B
:100210004E00B5400668354305601579012D02D0C2
:100220001579022D16D185684F000326BE40B543CF
:10023000856055794E00B5408668354385604568D0
:1002400001268E40B5434560456896798E40B6B22A
:1002500035434560C5684F000326BE40B543C560C1
:10026000D5794E00B540C6683543C560491C102994
:10027000BFD3F0BD42694A40426170471CB50121BD
:10028000082000F059F84FF47040009001208DF8DC
:10029000040000208DF806008DF80700694602482A
:1002A000FFF7A0FF1CBD0000000C024070B500214C
:1002B00000230F22C4781CB3174C246804F4E064B4
:1002C000C4F5E064C4F30721C1F10404E3B20A41B8
:1002D00044789C40E1B28478144021430C07210EFD
:1002E0000E4C05786155047804F01F050124AC40DC
:1002F00005786D11AD0005F1E025C5F8004109E074
:10030000047804F01F050124AC40054D06787611F1
:1003100045F8264070BD00000CED00E000E400E070
:1003200080E100E002490143024A11607047000089
:100330000000FA050CED00E029B1064A12680243FC
:10034000044B1A6004E0034A12688243014B1A60AE
:10035000704700003038024029B1064A1268024353
:10036000044B1A6004E0034A12688243014B1A608E
:1003700070470000403802401448006840F47000A4
:10038000124908601248006840F0010010490860F6
:1003900000200F49083108600D4800680D490840E9
:1003A0000B4908600C48091D0860081F006820F40C
:1003B0008020091F0860002005490C3108604FF0BB
:1003C00000600249803908607047000088ED00E055
:1003D00000380240FFFFF6FE103000241FB5012157
:1003E0000846FFF7B9FF43F67F60ADF8040000113F
:1003F00002900020ADF8060001A94FF0804000F007
:1004000057F801221146900700F048F801218807AB
:1004100000F027F84FF4C060FFF784FF1C208DF830
:10042000000001208DF801008DF802008DF8030016
:100430006846FFF73BFF1FBD10B50121880700F09C
:100440001CF840B14FF470410348FFF713FF01213E
:10045000880700F003F810BD000C0240CA43028276
:10046000704721B1028842F00102028004E0028854
:100470004FF6FE731A400280704730B502460020E6
:1004800000230024158A05EA0103958905EA010481
:1004900013B10CB1012000E0002030BD1AB18389F6
:1004A0000B43838102E083898B4383817047000083
:1004B00000220288184B98420ED0184B98420BD05D
:1004C000B0F1804F08D0164B984205D0154B98429A
:1004D00002D0154B984204D14FF68F731A404B88C7
:1004E0001A43124B984207D0114B984204D04FF652
:1004F000FF431A400B891A4302804B68C3620B8882
:100500000385054B984202D0044B984201D18B7A67
:1005100003860123838270470000014000040140EC
:100520000004004000080040000C004000100040A3
:100530000014004002E008C8121F08C1002AFAD1C6
:1005400070477047002001E001C1121F002AFBD153
:100550007047FFF793FEFFF741FF00BFFEE7000083
:100560007005000800000020000400004405000899
:040000050800019D51
:00000001FF
