:020000040800F2
:10000000080400209D010008A5010008A7010008C0
:10001000A9010008AB010008AD01000800000000C4
:10002000000000000000000000000000AF01000818
:10003000B101000800000000B3010008B50100088C
:10004000B7010008B7010008B7010008B7010008B0
:10005000B7010008B701000849020008B70100080D
:10006000B7010008B7010008B7010008B701000890
:10007000B7010008B7010008B7010008B701000880
:10008000B7010008B7010008B7010008B701000870
:10009000B7010008B7010008B7010008B701000860
:1000A000B7010008B7010008B7010008B701000850
:1000B0003D060008B7010008B7010008B7010008B5
:1000C000B7010008B7010008B7010008B701000830
:1000D000B7010008B7010008B7010008B701000820
:1000E000B7010008B7010008B7010008B701000810
:1000F000B7010008B7010008B7010008B701000800
:10010000B7010008B7010008B7010008B7010008EF
:10011000B7010008B7010008B7010008B7010008DF
:10012000B7010008B7010008B7010008B7010008CF
:10013000B7010008B7010008B7010008B7010008BF
:10014000B7010008B7010008B7010008B7010008AF
:10015000B7010008B7010008B7010008B70100089F
:10016000B7010008B7010008B7010008B70100088F
:10017000B7010008B7010008B7010008000000003F
:10018000B7010008B7010008DFF80CD000F018F83C
:10019000004800470108000808040020064880477E
:1001A00006480047FEE7FEE7FEE7FEE7FEE7FEE75C
:1001B000FEE7FEE7FEE7FEE7790500088901000893
:1001C000064C074D06E0E06840F0010394E80700A4
:1001D00098471034AC42F6D3FFF7DAFF280800083E
:1001E0004808000801B500BF0098411E0091002892
:1001F000FAD108BD0EB50121880300F079F900217C
:10020000084600F099F90120019000208DF80800BF
:1002100008208DF8090001208DF80A0001A800F0DF
:1002200053F84FF4C06000F039F906208DF8000053
:1002300000208DF8010001208DF802008DF80300E8
:10024000684600F0EFF80EBD10B5012000F030F860
:10025000F8B14FF47041114800F0CAF81048FFF7A8
:10026000C1FF4FF470410D4800F0C0F80C48FFF793
:10027000B9FF4FF47041094800F0BAF80848FFF799
:10028000B1FF4FF47041054800F0B0F80448FFF7A3
:10029000A9FF012000F006F810BD0000000C02408C
:1002A000FFFF3F000149086070470000143C014017
:1002B00001460020034A12680A400AB1012000E00A
:1002C00000207047143C0140002123498279002A14
:1002D0003AD00A46126803689A430B461A600A1D10
:1002E000126803689A430B1D1A60027911440A6868
:1002F00003681A430A60184A0832126803689A436E
:10030000154B08331A601A1D126803689A43124B82
:100310000C331A604279102A0ED11A1F1268036832
:100320001A430D4B08331A601A1D126803681A43EA
:10033000094B0C331A600DE00749427911440A68F1
:1003400003681A430A6005E0027911440A680368E9
:100350009A430A6070470000003C0140F0B50A462D
:1003600000210023002400BF3DE0012505FA01F330
:10037000156805EA03049C4234D105684F00032642
:10038000BE40B543056015794E00B540066835435B
:1003900005601579012D02D01579022D16D18568D9
:1003A0004F000326BE40B543856055794E00B540E9
:1003B000866835438560456801268E40B5434560B3
:1003C000456896798E40B6B235434560C5684F00A2
:1003D0000326BE40B543C560D5794E00B540C6681A
:1003E0003543C560491C1029BFD3F0BD4183704718
:1003F000018370471CB50121082000F059F84FF423
:100400007040009001208DF8040000208DF8060057
:100410008DF8070069460248FFF7A0FF1CBD0000E9
:10042000000C024070B5002100230F22C4781CB3D9
:10043000174C246804F4E064C4F5E064C4F30721B5
:10044000C1F10404E3B20A4144789C40E1B28478EB
:10045000144021430C07210E0E4C05786155047899
:1004600004F01F050124AC4005786D11AD0005F1C5
:10047000E025C5F8004109E0047804F01F050124D7
:10048000AC40054D0678761145F8264070BD000059
:100490000CED00E000E400E080E100E002490143EF
:1004A000024A1160704700000000FA050CED00E000
:1004B00029B1064A12680243044B1A6004E0034A59
:1004C00012688243014B1A607047000030380240C6
:1004D00029B1064A12680243044B1A6004E0034A39
:1004E00012688243014B1A60704700004038024096
:1004F00029B1064A12680243044B1A6004E0034A19
:1005000012688243014B1A60704700004438024071
:100510001CB501210846FFF7CBFF01200090002009
:100520008DF804008DF8070069460248FFF716FFB2
:100530001CBD0000000C024030B500228B071C0FD0
:100540000F2303FA04F20B4B8C1053F8243093431F
:10055000084C8D1044F8253023468C1053F8243075
:100560008C07240F00FA04F42343024C8D1044F846
:10057000253030BD083801401448006840F4700050
:10058000124908601248006840F0010010490860F4
:1005900000200F49083108600D4800680D490840E7
:1005A0000B4908600C48091D0860081F006820F40A
:1005B0008020091F0860002005490C3108604FF0B9
:1005C00000600249803908607047000088ED00E053
:1005D00000380240FFFFF6FE103000241FB504462D
:1005E00001210846FFF774FF43F67F60ADF8040071
:1005F000601E02900020ADF8060001A94FF0804077
:1006000000F0ACF801221146900700F09DF801219E
:10061000880700F07CF84FF4C060FFF73FFF1C2014
:100620008DF8000001208DF801008DF802008DF892
:1006300003006846FFF7F6FE1FBD000010B501215C
:10064000880700F070F8002854D02D48008878B949
:100650004FF470412B48FFF7C9FE4FF480512948F1
:10066000FFF7C6FE26480088401C2549088041E067
:100670002348008801280FD14FF470412148FFF72B
:10068000B5FE4FF400511F48FFF7B2FE1C4800882A
:10069000401C1B4908802DE01948008802280FD112
:1006A0004FF470411748FFF7A1FE4FF48041154801
:1006B000FFF79EFE12480088401C1149088019E08F
:1006C0000F48008803280DD14FF470410D48FFF703
:1006D0008DFE4FF400410B48FFF78AFE00200849C9
:1006E000088007E04FF470410648FFF77FFE0020C6
:1006F000034908800121880700F006F810BD0000BA
:1007000004000020000C0240CA430282704721B15D
:10071000028842F00102028004E002884FF6FE7374
:100720001A400280704730B50246002000230024A2
:10073000158A05EA0103958905EA010413B10CB194
:10074000012000E0002030BD1AB183890B43838172
:1007500002E083898B438381704700000022028876
:10076000184B98420ED0184B98420BD0B0F1804FE6
:1007700008D0164B984205D0154B984202D0154B25
:10078000984204D14FF68F731A404B881A43124B8C
:10079000984207D0114B984204D04FF6FF431A40BD
:1007A0000B891A4302804B68C3620B880385054B93
:1007B000984202D0044B984201D18B7A03860123E0
:1007C00083827047000001400004014000040040A3
:1007D00000080040000C00400010004000140040E1
:1007E00002E008C8121F08C1002AFAD170477047FA
:1007F000002001E001C1121F002AFBD17047000058
:10080000FFF7F8FDFFF784FE4FF47A70FFF7E6FE7E
:10081000FFF7F0FC4FF470410248FFF7E7FD00BF1F
:10082000FEE70000000C024048080008000000201D
:1008300008000000E0070008500800080800002039
:1008400000040000F00700080000000000000000A5
:040000050800019D51
:00000001FF
