:020000040800F2
:10000000080400209D010008A5010008A7010008C0
:10001000A9010008AB010008AD01000800000000C4
:10002000000000000000000000000000AF01000818
:10003000B101000800000000B3010008B50100088C
:10004000B7010008B7010008B7010008B7010008B0
:10005000B7010008B7010008B7010008B7010008A0
:10006000B7010008B7010008B7010008B701000890
:10007000B7010008B7010008B7010008B701000880
:10008000B7010008B7010008B7010008B701000870
:10009000B7010008B7010008B7010008B701000860
:1000A000B7010008B7010008B7010008B701000850
:1000B00009050008B7010008B7010008B7010008EA
:1000C000B7010008B7010008B7010008B701000830
:1000D000B7010008B7010008B7010008B701000820
:1000E000B7010008B7010008B7010008B701000810
:1000F000B7010008B7010008B7010008B701000800
:10010000B7010008B7010008B7010008B7010008EF
:10011000B7010008B7010008B7010008B7010008DF
:10012000B7010008B7010008B7010008B7010008CF
:10013000B7010008B7010008B7010008B7010008BF
:10014000B7010008B7010008B7010008B7010008AF
:10015000B7010008B7010008B7010008B70100089F
:10016000B7010008B7010008B7010008B70100088F
:10017000B7010008B7010008B7010008000000003F
:10018000B7010008B7010008DFF80CD000F018F83C
:10019000004800472F09000808040020064880474F
:1001A00006480047FEE7FEE7FEE7FEE7FEE7FEE75C
:1001B000FEE7FEE7FEE7FEE74504000889010008C8
:1001C000064C074D06E0E06840F0010394E80700A4
:1001D00098471034AC42F6D3FFF7DAFF480900081D
:1001E00068090008F0B50A4600210023002400BF7A
:1001F0003DE0012505FA01F3156805EA03049C4278
:1002000034D105684F000326BE40B543056015791B
:100210004E00B5400668354305601579012D02D0C2
:100220001579022D16D185684F000326BE40B543CF
:10023000856055794E00B5408668354385604568D0
:1002400001268E40B5434560456896798E40B6B22A
:1002500035434560C5684F000326BE40B543C560C1
:10026000D5794E00B540C6683543C560491C102994
:10027000BFD3F0BD1CB50121082000F0C3F8022255
:100280000C21124800F024F802220D210F4800F042
:100290001FF802220E210D4800F01AF802220F2149
:1002A0000A4800F015F84FF47040009002208DF8D5
:1002B000040003208DF8050000208DF806008DF85D
:1002C000070069460148FFF78DFF1CBD000C024086
:1002D000F0B5002300244D07ED0E02FA05F3CE1011
:1002E00000F1200555F826504E07F70E0F26BE40A8
:1002F000B543CF1000F1200646F82750CE1000F18C
:10030000200555F8265045EA0304CE1000F12005DB
:1003100045F82640F0BD000070B5002100230F22F3
:10032000C4781CB3174C246804F4E064C4F5E0649A
:10033000C4F30721C1F10404E3B20A4144789C40AC
:10034000E1B28478144021430C07210E0E4C05784D
:100350006155047804F01F050124AC4005786D1147
:10036000AD0005F1E025C5F8004109E0047804F08E
:100370001F050124AC40054D0678761145F826404E
:1003800070BD00000CED00E000E400E080E100E062
:1003900002490143024A1160704700000000FA055B
:1003A0000CED00E000B585B06020ADF80000012044
:1003B000ADF802000020ADF80C000290694610482C
:1003C00000F0FCF808210E4800F036F969460C48A8
:1003D00000F03CF908210A4800F08AF9694608480B
:1003E00000F094F90821064800F0E0F96946044855
:1003F00000F0E6F90821024800F01EFA05B000BD41
:100400000008004029B1064A12680243044B1A60F2
:1004100004E0034A12688243014B1A6070470000EF
:100420003038024029B1064A12680243044B1A6070
:1004300004E0034A12688243014B1A6070470000CF
:10044000403802401448006840F4700012490860C7
:100450001248006840F001001049086000200F4970
:10046000083108600D4800680D4908400B490860D4
:100470000C48091D0860081F006820F48020091F2F
:100480000860002005490C3108604FF00060024907
:10049000803908607047000088ED00E000380240B5
:1004A000FFFFF6FE103000241FB504460121084668
:1004B000FFF7B8FF43F67F60ADF80400601E0290BE
:1004C0000020ADF8060001A94FF0804000F0C2F90D
:1004D00001221146900700F067F80121880700F01B
:1004E00046F84FF4C060FFF753FF1C208DF8000062
:1004F00001208DF801008DF802008DF80300684698
:10050000FFF70AFF1FBD000010B50121880700F0AA
:100510003AF818B312480088B0F5C86F02DD0A2017
:100520000F4908800E4800880E4908600C48008872
:10053000091D08600A480088091D086008480088ED
:10054000091D0860064800884FF6FF7101EA400067
:10055000034908800121880700F006F810BD00005B
:100560000400002034080040CA430282704721B1D1
:10057000028842F00102028004E002884FF6FE7316
:100580001A400280704730B5024600200023002444
:10059000158A05EA0103958905EA010413B10CB136
:1005A000012000E0002030BD1AB183890B43838114
:1005B00002E083898B4383817047000070B500247B
:1005C00000220023058C4FF6FE7635400584028C10
:1005D0008388048B4FF68F752C40B51E2C400D88F8
:1005E0002C43751E2A408D892A434D882A43104D7D
:1005F000A84202D00F4DA84213D14FF6F7752A40FA
:10060000CD892A434FF6FB752A408D882A434FF641
:10061000FF652B404FF6FF552B400D8A2B434D8A2B
:100620002B43838004838D684563028470BD000082
:1006300000000140000401400A460021018B4FF6F2
:10064000F7731940114301837047000070B500240F
:1006500000220023058C4FF6EF7635400584028C8E
:100660008388048B48F6FF752C404FF6FF452C40DD
:100670000D884FF6FF7606EA05252C434FF6DF7509
:100680002A408D8906EA05152A434D8806EA051594
:100690002A43154DA84202D0144DA8421DD14FF651
:1006A0007F752A40CD894FF6FF7606EA05152A4365
:1006B0004FF6BF752A408D8806EA05152A434FF686
:1006C000FF352B404FF2FF752B400D8A06EA85055A
:1006D0002B434D8A06EA85052B43838004838D686E
:1006E0008563028470BD00000000014000040140E9
:1006F0000A460021018B4FF2FF7319404FF6FF733A
:1007000003EA0223194301837047000070B50024F7
:1007100000220023058C4FF6FF6635400584028CCD
:100720008388848B4FF68F752C404FF6FC752C40D8
:100730000D882C434FF6FF552A408D894FF6FF76E2
:1007400006EA05252A434D8806EA05252A43154D64
:10075000A84202D0144DA8421DD14FF2FF752A4085
:10076000CD894FF6FF7606EA05252A434FF6FF3579
:100770002A408D8806EA05252A434EF6FF752B4050
:100780004DF6FF752B400D8A06EA05152B434D8A61
:1007900006EA05152B43838084838D68C563028434
:1007A00070BD000000000140000401400A46002125
:1007B000818B4FF6F7731940114381837047000016
:1007C00070B5002200230024058C4EF6FF763540DC
:1007D0000584038C8488828B48F6FF752A404FF687
:1007E000FF452A400D884FF6FF7606EA05252A4385
:1007F0004DF6FF752B408D8906EA05352B434D8854
:1008000006EA05352B430A4DA84202D0094DA842FD
:1008100008D14BF6FF752C400D8A4FF6FF7606EA9D
:1008200085152C43848082838D680564038470BDA4
:1008300000000140000401400A460021818B4FF274
:10084000FF7319404FF6FF7303EA022319438183B4
:100850007047000000220288184B98420ED0184BB7
:1008600098420BD0B0F1804F08D0164B984205D07B
:10087000154B984202D0154B984204D14FF68F7316
:100880001A404B881A43124B984207D0114B98429A
:1008900004D04FF6FF431A400B891A4302804B687D
:1008A000C3620B880385054B984202D0044B9842E3
:1008B00001D18B7A038601238382704700000140B7
:1008C000000401400004004000080040000C00400B
:1008D00000100040001400400EB501210420FFF775
:1008E000A1FD0020ADF8000040F23F600190002023
:1008F000ADF80200ADF8080069460448FFF7AAFF0A
:1009000001210248FFF733FE0EBD00000008004041
:1009100002E008C8121F08C1002AFAD170477047C8
:10092000002001E001C1121F002AFBD17047FFF730
:10093000A1FCFFF7D1FFFFF735FD4FF4FA70FFF789
:10094000B3FD00BFFEE700006809000800000020BA
:1009500008000000100900087009000808000020C5
:100960000004000020090008000000000A00000048
:040000050800019D51
:00000001FF
